{
  "contractName": "Authenticity",
  "abi": [
    {
      "anonymous": false,
      "inputs": [
        {
          "indexed": false,
          "internalType": "address",
          "name": "author",
          "type": "address"
        },
        {
          "indexed": false,
          "internalType": "string",
          "name": "hash",
          "type": "string"
        },
        {
          "indexed": false,
          "internalType": "uint256",
          "name": "timestamp",
          "type": "uint256"
        },
        {
          "indexed": false,
          "internalType": "uint256",
          "name": "size",
          "type": "uint256"
        },
        {
          "indexed": false,
          "internalType": "string",
          "name": "docType",
          "type": "string"
        }
      ],
      "name": "DocumentSigned",
      "type": "event"
    },
    {
      "constant": false,
      "inputs": [
        {
          "internalType": "uint256",
          "name": "size",
          "type": "uint256"
        },
        {
          "internalType": "string",
          "name": "hash",
          "type": "string"
        },
        {
          "internalType": "string",
          "name": "docType",
          "type": "string"
        }
      ],
      "name": "signDocument",
      "outputs": [],
      "payable": true,
      "stateMutability": "payable",
      "type": "function"
    },
    {
      "constant": true,
      "inputs": [
        {
          "internalType": "string",
          "name": "hash",
          "type": "string"
        }
      ],
      "name": "verifyDocument",
      "outputs": [
        {
          "components": [
            {
              "internalType": "address",
              "name": "author",
              "type": "address"
            },
            {
              "internalType": "string",
              "name": "hash",
              "type": "string"
            },
            {
              "internalType": "uint256",
              "name": "timestamp",
              "type": "uint256"
            },
            {
              "internalType": "uint256",
              "name": "size",
              "type": "uint256"
            },
            {
              "internalType": "string",
              "name": "docType",
              "type": "string"
            }
          ],
          "internalType": "struct Authenticity.Signature",
          "name": "",
          "type": "tuple"
        }
      ],
      "payable": false,
      "stateMutability": "view",
      "type": "function"
    },
    {
      "constant": true,
      "inputs": [],
      "name": "getSignatures",
      "outputs": [
        {
          "components": [
            {
              "internalType": "address",
              "name": "author",
              "type": "address"
            },
            {
              "internalType": "string",
              "name": "hash",
              "type": "string"
            },
            {
              "internalType": "uint256",
              "name": "timestamp",
              "type": "uint256"
            },
            {
              "internalType": "uint256",
              "name": "size",
              "type": "uint256"
            },
            {
              "internalType": "string",
              "name": "docType",
              "type": "string"
            }
          ],
          "internalType": "struct Authenticity.Signature[]",
          "name": "",
          "type": "tuple[]"
        }
      ],
      "payable": false,
      "stateMutability": "view",
      "type": "function"
    }
  ],
  "bytecode": "0x608060405234801561001057600080fd5b50611318806100206000396000f3fe6080604052600436106100345760003560e01c80637af0837e14610039578063ad6f80ff14610055578063beee5eb714610080575b600080fd5b610053600480360361004e9190810190610b85565b6100bd565b005b34801561006157600080fd5b5061006a610413565b6040516100779190611056565b60405180910390f35b34801561008c57600080fd5b506100a760048036036100a29190810190610b44565b6107ba565b6040516100b49190611098565b60405180910390f35b600080836040516100ce9190610fb2565b90815260200160405180910390206003015414801561015657506040516020016100f790610fe0565b6040516020818303038152906040528051906020012060008360405161011d9190610fb2565b908152602001604051809103902060010160405160200161013e9190610fc9565b60405160208183030381529060405280519060200120145b80156101cb575060405160200161016c90610fe0565b604051602081830303815290604052805190602001206000836040516101929190610fb2565b90815260200160405180910390206004016040516020016101b39190610fc9565b60405160208183030381529060405280519060200120145b61020a576040517f08c379a000000000000000000000000000000000000000000000000000000000815260040161020190611078565b60405180910390fd5b6102126109ac565b6040518060a001604052803373ffffffffffffffffffffffffffffffffffffffff168152602001848152602001428152602001858152602001838152509050806000846040516102629190610fb2565b908152602001604051809103902060008201518160000160006101000a81548173ffffffffffffffffffffffffffffffffffffffff021916908373ffffffffffffffffffffffffffffffffffffffff16021790555060208201518160010190805190602001906102d39291906109f1565b50604082015181600201556060820151816003015560808201518160040190805190602001906103049291906109f1565b509050506001819080600181540180825580915050906001820390600052602060002090600502016000909192909190915060008201518160000160006101000a81548173ffffffffffffffffffffffffffffffffffffffff021916908373ffffffffffffffffffffffffffffffffffffffff16021790555060208201518160010190805190602001906103999291906109f1565b50604082015181600201556060820151816003015560808201518160040190805190602001906103ca9291906109f1565b505050507fc2f4335e3550bf8d9423a5a755971a458cfd6be0bcbb3e97fb79ffc613480c933384428786604051610405959493929190610ff5565b60405180910390a150505050565b6060600080905060008090505b6001805490508110156104db5760006001828154811061043c57fe5b906000526020600020906005020190503360405160200161045d9190610f97565b604051602081830303815290604052805190602001208160000160009054906101000a900473ffffffffffffffffffffffffffffffffffffffff166040516020016104a89190610f7c565b6040516020818303038152906040528051906020012014156104cd5782806001019350505b508080600101915050610420565b5060608160405190808252806020026020018201604052801561051857816020015b610505610a71565b8152602001906001900390816104fd5790505b509050600080905060008090505b6001805490508110156107b05760006001828154811061054257fe5b90600052602060002090600502019050336040516020016105639190610f97565b604051602081830303815290604052805190602001208160000160009054906101000a900473ffffffffffffffffffffffffffffffffffffffff166040516020016105ae9190610f7c565b6040516020818303038152906040528051906020012014156107a257806040518060a00160405290816000820160009054906101000a900473ffffffffffffffffffffffffffffffffffffffff1673ffffffffffffffffffffffffffffffffffffffff1673ffffffffffffffffffffffffffffffffffffffff168152602001600182018054600181600116156101000203166002900480601f0160208091040260200160405190810160405280929190818152602001828054600181600116156101000203166002900480156106c55780601f1061069a576101008083540402835291602001916106c5565b820191906000526020600020905b8154815290600101906020018083116106a857829003601f168201915b505050505081526020016002820154815260200160038201548152602001600482018054600181600116156101000203166002900480601f01602080910402602001604051908101604052809291908181526020018280546001816001161561010002031660029004801561077b5780601f106107505761010080835404028352916020019161077b565b820191906000526020600020905b81548152906001019060200180831161075e57829003601f168201915b50505050508152505084848151811061079057fe5b60200260200101819052506001830192505b508080600101915050610526565b5081935050505090565b6107c26109ac565b6107ca6109ac565b6000836040516107da9190610fb2565b90815260200160405180910390206040518060a00160405290816000820160009054906101000a900473ffffffffffffffffffffffffffffffffffffffff1673ffffffffffffffffffffffffffffffffffffffff1673ffffffffffffffffffffffffffffffffffffffff168152602001600182018054600181600116156101000203166002900480601f0160208091040260200160405190810160405280929190818152602001828054600181600116156101000203166002900480156108e25780601f106108b7576101008083540402835291602001916108e2565b820191906000526020600020905b8154815290600101906020018083116108c557829003601f168201915b505050505081526020016002820154815260200160038201548152602001600482018054600181600116156101000203166002900480601f0160208091040260200160405190810160405280929190818152602001828054600181600116156101000203166002900480156109985780601f1061096d57610100808354040283529160200191610998565b820191906000526020600020905b81548152906001019060200180831161097b57829003601f168201915b505050505081525050905080915050919050565b6040518060a00160405280600073ffffffffffffffffffffffffffffffffffffffff168152602001606081526020016000815260200160008152602001606081525090565b828054600181600116156101000203166002900490600052602060002090601f016020900481019282601f10610a3257805160ff1916838001178555610a60565b82800160010185558215610a60579182015b82811115610a5f578251825591602001919060010190610a44565b5b509050610a6d9190610ab6565b5090565b6040518060a00160405280600073ffffffffffffffffffffffffffffffffffffffff168152602001606081526020016000815260200160008152602001606081525090565b610ad891905b80821115610ad4576000816000905550600101610abc565b5090565b90565b600082601f830112610aec57600080fd5b8135610aff610afa826110e7565b6110ba565b91508082526020830160208301858383011115610b1b57600080fd5b610b26838284611228565b50505092915050565b600081359050610b3e816112be565b92915050565b600060208284031215610b5657600080fd5b600082013567ffffffffffffffff811115610b7057600080fd5b610b7c84828501610adb565b91505092915050565b600080600060608486031215610b9a57600080fd5b6000610ba886828701610b2f565b935050602084013567ffffffffffffffff811115610bc557600080fd5b610bd186828701610adb565b925050604084013567ffffffffffffffff811115610bee57600080fd5b610bfa86828701610adb565b9150509250925092565b6000610c108383610ee1565b905092915050565b610c21816111f2565b82525050565b610c38610c33826111b6565b61127c565b82525050565b610c47816111a4565b82525050565b610c5e610c59826111a4565b61126a565b82525050565b6000610c6f82611138565b610c798185611166565b935083602082028501610c8b85611113565b8060005b85811015610cc75784840389528151610ca88582610c04565b9450610cb383611159565b925060208a01995050600181019050610c8f565b50829750879550505050505092915050565b6000610ce48261114e565b610cee8185611188565b9350610cfe818560208601611237565b610d07816112a0565b840191505092915050565b6000610d1d8261114e565b610d278185611199565b9350610d37818560208601611237565b80840191505092915050565b6000610d4e82611143565b610d588185611177565b9350610d68818560208601611237565b610d71816112a0565b840191505092915050565b600081546001811660008114610d995760018114610dbe57610e02565b607f6002830416610daa8187611199565b955060ff1983168652808601935050610e02565b60028204610dcc8187611199565b9550610dd785611123565b60005b82811015610df957815481890152600182019150602081019050610dda565b82880195505050505b505092915050565b6000610e17601783611188565b91507f646f63756d656e7420616c7265616479207369676e65640000000000000000006000830152602082019050919050565b6000610e57600083611199565b9150600082019050919050565b600060a083016000830151610e7c6000860182610c3e565b5060208301518482036020860152610e948282610d43565b9150506040830151610ea96040860182610f5e565b506060830151610ebc6060860182610f5e565b5060808301518482036080860152610ed48282610d43565b9150508091505092915050565b600060a083016000830151610ef96000860182610c3e565b5060208301518482036020860152610f118282610d43565b9150506040830151610f266040860182610f5e565b506060830151610f396060860182610f5e565b5060808301518482036080860152610f518282610d43565b9150508091505092915050565b610f67816111e8565b82525050565b610f76816111e8565b82525050565b6000610f888284610c4d565b60148201915081905092915050565b6000610fa38284610c27565b60148201915081905092915050565b6000610fbe8284610d12565b915081905092915050565b6000610fd58284610d7c565b915081905092915050565b6000610feb82610e4a565b9150819050919050565b600060a08201905061100a6000830188610c18565b818103602083015261101c8187610cd9565b905061102b6040830186610f6d565b6110386060830185610f6d565b818103608083015261104a8184610cd9565b90509695505050505050565b600060208201905081810360008301526110708184610c64565b905092915050565b6000602082019050818103600083015261109181610e0a565b9050919050565b600060208201905081810360008301526110b28184610e64565b905092915050565b6000604051905081810181811067ffffffffffffffff821117156110dd57600080fd5b8060405250919050565b600067ffffffffffffffff8211156110fe57600080fd5b601f19601f8301169050602081019050919050565b6000819050602082019050919050565b60008190508160005260206000209050919050565b600081519050919050565b600081519050919050565b600081519050919050565b6000602082019050919050565b600082825260208201905092915050565b600082825260208201905092915050565b600082825260208201905092915050565b600081905092915050565b60006111af826111c8565b9050919050565b60006111c1826111c8565b9050919050565b600073ffffffffffffffffffffffffffffffffffffffff82169050919050565b6000819050919050565b60006111fd82611204565b9050919050565b600061120f82611216565b9050919050565b6000611221826111c8565b9050919050565b82818337600083830152505050565b60005b8381101561125557808201518184015260208101905061123a565b83811115611264576000848401525b50505050565b60006112758261128e565b9050919050565b60006112878261128e565b9050919050565b6000611299826112b1565b9050919050565b6000601f19601f8301169050919050565b60008160601b9050919050565b6112c7816111e8565b81146112d257600080fd5b5056fea365627a7a72315820b623c57fc9d6aade83f5870444f406cd6bede2df0f57ac603cb6963c37c8ac046c6578706572696d656e74616cf564736f6c63430005100040",
  "source": "pragma solidity ^0.5.16;\r\npragma experimental ABIEncoderV2;\r\n\r\ncontract Authenticity {\r\n\r\n  // event that will be fired when a document is signed\r\n  event DocumentSigned(address author, string hash, uint timestamp, uint size, string docType);\r\n\r\n  //struct that describes a signature for a document\r\n  struct Signature {\r\n    address author;\r\n    string hash;\r\n    uint timestamp;\r\n    uint size;\r\n    string docType;\r\n  }\r\n\r\n  //map that will store the signatures by hash\r\n  mapping (string => Signature) signaturesMap;\r\n  //array for signatures\r\n  Signature[] signaturesArray;\r\n\r\n  //function used for signing a document\r\n  function signDocument(uint size, string memory hash, string memory docType) public payable {\r\n    require((signaturesMap[hash].size == 0 &&\r\n              keccak256(abi.encodePacked(signaturesMap[hash].hash)) == keccak256(abi.encodePacked(\"\")) &&\r\n              keccak256(abi.encodePacked(signaturesMap[hash].docType)) == keccak256(abi.encodePacked(\"\"))),\r\n            \"document already signed\");\r\n\r\n\r\n      Signature memory newSignature = Signature(msg.sender, hash, block.timestamp, size, docType);\r\n      signaturesMap[hash] = newSignature;\r\n      signaturesArray.push(newSignature);\r\n      emit DocumentSigned(msg.sender, hash, block.timestamp, size, docType);\r\n\r\n\r\n  }\r\n\r\n  //function used for checking if a document has been sign; returns a signature for a given document hash\r\n  function verifyDocument(string memory hash) public view returns (Signature memory) {\r\n\r\n    Signature memory newSignature = signaturesMap[hash];\r\n\r\n    return newSignature;\r\n  }\r\n\r\n  //function used for returning an array of signatures associated with an account\r\n  function getSignatures() public view returns (Signature[] memory){\r\n    uint count = 0;\r\n    for (uint i = 0; i < signaturesArray.length; i++) {\r\n      Signature storage signature = signaturesArray[i];\r\n      if(keccak256(abi.encodePacked(signature.author)) == keccak256(abi.encodePacked(msg.sender))){\r\n        count++;\r\n      }\r\n    }\r\n\r\n    Signature[] memory newArray = new Signature[](count);\r\n    uint j = 0;\r\n    for (uint i = 0; i < signaturesArray.length; i++) {\r\n      Signature storage signature = signaturesArray[i];\r\n      if(keccak256(abi.encodePacked(signature.author)) == keccak256(abi.encodePacked(msg.sender))){\r\n        newArray[j] = signature;\r\n        j = j + 1;\r\n      }\r\n    }\r\n    return newArray;\r\n  }\r\n}\r\n\r\n\r\n",
  "sourcePath": "C:\\Users\\40740\\Desktop\\AngularDapp\\NotaryDapp\\truffle\\contracts\\Authenticity.sol",
  "compiler": {
    "name": "solc",
    "version": "0.5.16+commit.9c3226ce.Emscripten.clang"
  },
  "schemaVersion": "3.4.7",
  "updatedAt": "2022-04-20T14:53:35.946Z",
  "networkType": "ethereum",
  "devdoc": {
    "methods": {}
  },
  "userdoc": {
    "methods": {}
  }
}