{
  "contractName": "Authenticity",
  "abi": [
    {
      "anonymous": false,
      "inputs": [
        {
          "indexed": false,
          "internalType": "address",
          "name": "author",
          "type": "address"
        },
        {
          "indexed": false,
          "internalType": "string",
          "name": "hash",
          "type": "string"
        },
        {
          "indexed": false,
          "internalType": "uint256",
          "name": "timestamp",
          "type": "uint256"
        },
        {
          "indexed": false,
          "internalType": "uint256",
          "name": "size",
          "type": "uint256"
        },
        {
          "indexed": false,
          "internalType": "string",
          "name": "docType",
          "type": "string"
        }
      ],
      "name": "DocumentSigned",
      "type": "event"
    },
    {
      "constant": false,
      "inputs": [
        {
          "internalType": "uint256",
          "name": "size",
          "type": "uint256"
        },
        {
          "internalType": "string",
          "name": "hash",
          "type": "string"
        },
        {
          "internalType": "string",
          "name": "docType",
          "type": "string"
        }
      ],
      "name": "signDocument",
      "outputs": [],
      "payable": true,
      "stateMutability": "payable",
      "type": "function"
    },
    {
      "constant": true,
      "inputs": [
        {
          "internalType": "string",
          "name": "hash",
          "type": "string"
        }
      ],
      "name": "verifyDocument",
      "outputs": [
        {
          "internalType": "address",
          "name": "",
          "type": "address"
        },
        {
          "internalType": "string",
          "name": "",
          "type": "string"
        },
        {
          "internalType": "uint256",
          "name": "",
          "type": "uint256"
        },
        {
          "internalType": "uint256",
          "name": "",
          "type": "uint256"
        },
        {
          "internalType": "string",
          "name": "",
          "type": "string"
        }
      ],
      "payable": false,
      "stateMutability": "view",
      "type": "function"
    },
    {
      "constant": true,
      "inputs": [],
      "name": "getSignatures",
      "outputs": [
        {
          "components": [
            {
              "internalType": "address",
              "name": "author",
              "type": "address"
            },
            {
              "internalType": "string",
              "name": "hash",
              "type": "string"
            },
            {
              "internalType": "uint256",
              "name": "timestamp",
              "type": "uint256"
            },
            {
              "internalType": "uint256",
              "name": "size",
              "type": "uint256"
            },
            {
              "internalType": "string",
              "name": "docType",
              "type": "string"
            }
          ],
          "internalType": "struct Authenticity.Signature[]",
          "name": "",
          "type": "tuple[]"
        }
      ],
      "payable": false,
      "stateMutability": "view",
      "type": "function"
    }
  ],
  "bytecode": "0x608060405234801561001057600080fd5b50611317806100206000396000f3fe6080604052600436106100345760003560e01c80637af0837e14610039578063ad6f80ff14610055578063beee5eb714610080575b600080fd5b610053600480360361004e9190810190610bb3565b6100c1565b005b34801561006157600080fd5b5061006a610417565b6040516100779190611077565b60405180910390f35b34801561008c57600080fd5b506100a760048036036100a29190810190610b72565b6107be565b6040516100b8959493929190611016565b60405180910390f35b600080836040516100d29190610f72565b90815260200160405180910390206003015414801561015a57506040516020016100fb90610fa0565b604051602081830303815290604052805190602001206000836040516101219190610f72565b90815260200160405180910390206001016040516020016101429190610f89565b60405160208183030381529060405280519060200120145b80156101cf575060405160200161017090610fa0565b604051602081830303815290604052805190602001206000836040516101969190610f72565b90815260200160405180910390206004016040516020016101b79190610f89565b60405160208183030381529060405280519060200120145b61020e576040517f08c379a000000000000000000000000000000000000000000000000000000000815260040161020590611099565b60405180910390fd5b6102166109da565b6040518060a001604052803373ffffffffffffffffffffffffffffffffffffffff168152602001848152602001428152602001858152602001838152509050806000846040516102669190610f72565b908152602001604051809103902060008201518160000160006101000a81548173ffffffffffffffffffffffffffffffffffffffff021916908373ffffffffffffffffffffffffffffffffffffffff16021790555060208201518160010190805190602001906102d7929190610a1f565b5060408201518160020155606082015181600301556080820151816004019080519060200190610308929190610a1f565b509050506001819080600181540180825580915050906001820390600052602060002090600502016000909192909190915060008201518160000160006101000a81548173ffffffffffffffffffffffffffffffffffffffff021916908373ffffffffffffffffffffffffffffffffffffffff160217905550602082015181600101908051906020019061039d929190610a1f565b50604082015181600201556060820151816003015560808201518160040190805190602001906103ce929190610a1f565b505050507fc2f4335e3550bf8d9423a5a755971a458cfd6be0bcbb3e97fb79ffc613480c933384428786604051610409959493929190610fb5565b60405180910390a150505050565b6060600080905060008090505b6001805490508110156104df5760006001828154811061044057fe5b90600052602060002090600502019050336040516020016104619190610f57565b604051602081830303815290604052805190602001208160000160009054906101000a900473ffffffffffffffffffffffffffffffffffffffff166040516020016104ac9190610f3c565b6040516020818303038152906040528051906020012014156104d15782806001019350505b508080600101915050610424565b5060608160405190808252806020026020018201604052801561051c57816020015b610509610a9f565b8152602001906001900390816105015790505b509050600080905060008090505b6001805490508110156107b45760006001828154811061054657fe5b90600052602060002090600502019050336040516020016105679190610f57565b604051602081830303815290604052805190602001208160000160009054906101000a900473ffffffffffffffffffffffffffffffffffffffff166040516020016105b29190610f3c565b6040516020818303038152906040528051906020012014156107a657806040518060a00160405290816000820160009054906101000a900473ffffffffffffffffffffffffffffffffffffffff1673ffffffffffffffffffffffffffffffffffffffff1673ffffffffffffffffffffffffffffffffffffffff168152602001600182018054600181600116156101000203166002900480601f0160208091040260200160405190810160405280929190818152602001828054600181600116156101000203166002900480156106c95780601f1061069e576101008083540402835291602001916106c9565b820191906000526020600020905b8154815290600101906020018083116106ac57829003601f168201915b505050505081526020016002820154815260200160038201548152602001600482018054600181600116156101000203166002900480601f01602080910402602001604051908101604052809291908181526020018280546001816001161561010002031660029004801561077f5780601f106107545761010080835404028352916020019161077f565b820191906000526020600020905b81548152906001019060200180831161076257829003601f168201915b50505050508152505084848151811061079457fe5b60200260200101819052506001830192505b50808060010191505061052a565b5081935050505090565b6000606060008060606000866040516107d79190610f72565b908152602001604051809103902060000160009054906101000a900473ffffffffffffffffffffffffffffffffffffffff166000876040516108199190610f72565b908152602001604051809103902060010160008860405161083a9190610f72565b90815260200160405180910390206002015460008960405161085c9190610f72565b90815260200160405180910390206003015460008a60405161087e9190610f72565b9081526020016040518091039020600401838054600181600116156101000203166002900480601f0160208091040260200160405190810160405280929190818152602001828054600181600116156101000203166002900480156109245780601f106108f957610100808354040283529160200191610924565b820191906000526020600020905b81548152906001019060200180831161090757829003601f168201915b50505050509350808054600181600116156101000203166002900480601f0160208091040260200160405190810160405280929190818152602001828054600181600116156101000203166002900480156109c05780601f10610995576101008083540402835291602001916109c0565b820191906000526020600020905b8154815290600101906020018083116109a357829003601f168201915b505050505090509450945094509450945091939590929450565b6040518060a00160405280600073ffffffffffffffffffffffffffffffffffffffff168152602001606081526020016000815260200160008152602001606081525090565b828054600181600116156101000203166002900490600052602060002090601f016020900481019282601f10610a6057805160ff1916838001178555610a8e565b82800160010185558215610a8e579182015b82811115610a8d578251825591602001919060010190610a72565b5b509050610a9b9190610ae4565b5090565b6040518060a00160405280600073ffffffffffffffffffffffffffffffffffffffff168152602001606081526020016000815260200160008152602001606081525090565b610b0691905b80821115610b02576000816000905550600101610aea565b5090565b90565b600082601f830112610b1a57600080fd5b8135610b2d610b28826110e6565b6110b9565b91508082526020830160208301858383011115610b4957600080fd5b610b54838284611227565b50505092915050565b600081359050610b6c816112bd565b92915050565b600060208284031215610b8457600080fd5b600082013567ffffffffffffffff811115610b9e57600080fd5b610baa84828501610b09565b91505092915050565b600080600060608486031215610bc857600080fd5b6000610bd686828701610b5d565b935050602084013567ffffffffffffffff811115610bf357600080fd5b610bff86828701610b09565b925050604084013567ffffffffffffffff811115610c1c57600080fd5b610c2886828701610b09565b9150509250925092565b6000610c3e8383610ea1565b905092915050565b610c4f816111f1565b82525050565b610c66610c61826111b5565b61127b565b82525050565b610c75816111a3565b82525050565b610c84816111a3565b82525050565b610c9b610c96826111a3565b611269565b82525050565b6000610cac82611137565b610cb68185611165565b935083602082028501610cc885611112565b8060005b85811015610d045784840389528151610ce58582610c32565b9450610cf083611158565b925060208a01995050600181019050610ccc565b50829750879550505050505092915050565b6000610d218261114d565b610d2b8185611187565b9350610d3b818560208601611236565b610d448161129f565b840191505092915050565b6000610d5a8261114d565b610d648185611198565b9350610d74818560208601611236565b80840191505092915050565b6000610d8b82611142565b610d958185611176565b9350610da5818560208601611236565b610dae8161129f565b840191505092915050565b600081546001811660008114610dd65760018114610dfb57610e3f565b607f6002830416610de78187611198565b955060ff1983168652808601935050610e3f565b60028204610e098187611198565b9550610e1485611122565b60005b82811015610e3657815481890152600182019150602081019050610e17565b82880195505050505b505092915050565b6000610e54601783611187565b91507f646f63756d656e7420616c7265616479207369676e65640000000000000000006000830152602082019050919050565b6000610e94600083611198565b9150600082019050919050565b600060a083016000830151610eb96000860182610c6c565b5060208301518482036020860152610ed18282610d80565b9150506040830151610ee66040860182610f1e565b506060830151610ef96060860182610f1e565b5060808301518482036080860152610f118282610d80565b9150508091505092915050565b610f27816111e7565b82525050565b610f36816111e7565b82525050565b6000610f488284610c8a565b60148201915081905092915050565b6000610f638284610c55565b60148201915081905092915050565b6000610f7e8284610d4f565b915081905092915050565b6000610f958284610db9565b915081905092915050565b6000610fab82610e87565b9150819050919050565b600060a082019050610fca6000830188610c46565b8181036020830152610fdc8187610d16565b9050610feb6040830186610f2d565b610ff86060830185610f2d565b818103608083015261100a8184610d16565b90509695505050505050565b600060a08201905061102b6000830188610c7b565b818103602083015261103d8187610d16565b905061104c6040830186610f2d565b6110596060830185610f2d565b818103608083015261106b8184610d16565b90509695505050505050565b600060208201905081810360008301526110918184610ca1565b905092915050565b600060208201905081810360008301526110b281610e47565b9050919050565b6000604051905081810181811067ffffffffffffffff821117156110dc57600080fd5b8060405250919050565b600067ffffffffffffffff8211156110fd57600080fd5b601f19601f8301169050602081019050919050565b6000819050602082019050919050565b60008190508160005260206000209050919050565b600081519050919050565b600081519050919050565b600081519050919050565b6000602082019050919050565b600082825260208201905092915050565b600082825260208201905092915050565b600082825260208201905092915050565b600081905092915050565b60006111ae826111c7565b9050919050565b60006111c0826111c7565b9050919050565b600073ffffffffffffffffffffffffffffffffffffffff82169050919050565b6000819050919050565b60006111fc82611203565b9050919050565b600061120e82611215565b9050919050565b6000611220826111c7565b9050919050565b82818337600083830152505050565b60005b83811015611254578082015181840152602081019050611239565b83811115611263576000848401525b50505050565b60006112748261128d565b9050919050565b60006112868261128d565b9050919050565b6000611298826112b0565b9050919050565b6000601f19601f8301169050919050565b60008160601b9050919050565b6112c6816111e7565b81146112d157600080fd5b5056fea365627a7a723158204cdab1d60f0005c58205bc10a7b967dcf23165fbc9ce74804b635b85bf60df126c6578706572696d656e74616cf564736f6c63430005100040",
  "source": "pragma solidity ^0.5.16;\r\npragma experimental ABIEncoderV2;\r\n\r\ncontract Authenticity {\r\n\r\n  // event that will be fired when a file is certified.\r\n  event DocumentSigned(address author, string hash, uint timestamp, uint size, string docType);\r\n\r\n  //struct that describes a signature for a document\r\n  struct Signature {\r\n    address author;\r\n    string hash;\r\n    uint timestamp;\r\n    uint size;\r\n    string docType;\r\n  }\r\n\r\n  //map that will store the signatures by hash\r\n  mapping (string => Signature) signaturesMap;\r\n  //array for signatures\r\n  Signature[] signaturesArray;\r\n\r\n  //function used for signing a document\r\n  function signDocument(uint size, string memory hash, string memory docType) public payable {\r\n    require((signaturesMap[hash].size == 0 &&\r\n              keccak256(abi.encodePacked(signaturesMap[hash].hash)) == keccak256(abi.encodePacked(\"\")) &&\r\n              keccak256(abi.encodePacked(signaturesMap[hash].docType)) == keccak256(abi.encodePacked(\"\"))),\r\n            \"document already signed\");\r\n\r\n\r\n      Signature memory newSignature = Signature(msg.sender, hash, block.timestamp, size, docType);\r\n      signaturesMap[hash] = newSignature;\r\n      signaturesArray.push(newSignature);\r\n      emit DocumentSigned(msg.sender, hash, block.timestamp, size, docType);\r\n\r\n\r\n  }\r\n\r\n  //function used for checking if a document has been sign; returns a signature for a given document hash\r\n  function verifyDocument(string memory hash) public view returns (address, string memory, uint, uint, string memory) {\r\n    return (\r\n            signaturesMap[hash].author,\r\n            signaturesMap[hash].hash,\r\n            signaturesMap[hash].timestamp,\r\n            signaturesMap[hash].size,\r\n            signaturesMap[hash].docType\r\n    );\r\n  }\r\n\r\n  //function used for returning an array of signatures associated with an account\r\n  function getSignatures() public view returns (Signature[] memory){\r\n    uint count = 0;\r\n    for (uint i = 0; i < signaturesArray.length; i++) {\r\n      Signature storage signature = signaturesArray[i];\r\n      if(keccak256(abi.encodePacked(signature.author)) == keccak256(abi.encodePacked(msg.sender))){\r\n        count++;\r\n      }\r\n    }\r\n\r\n    Signature[] memory newArray = new Signature[](count);\r\n    uint j = 0;\r\n    for (uint i = 0; i < signaturesArray.length; i++) {\r\n      Signature storage signature = signaturesArray[i];\r\n      if(keccak256(abi.encodePacked(signature.author)) == keccak256(abi.encodePacked(msg.sender))){\r\n        newArray[j] = signature;\r\n        j = j + 1;\r\n      }\r\n    }\r\n    return newArray;\r\n  }\r\n}\r\n\r\n\r\n",
  "sourcePath": "C:\\Users\\40740\\Desktop\\AngularDapp\\NotaryDapp\\truffle\\contracts\\Authenticity.sol",
  "compiler": {
    "name": "solc",
    "version": "0.5.16+commit.9c3226ce.Emscripten.clang"
  },
  "schemaVersion": "3.4.7",
  "updatedAt": "2022-04-19T00:23:07.571Z",
  "devdoc": {
    "methods": {}
  },
  "userdoc": {
    "methods": {}
  }
}